{
	"Espresso/SM Test validation.sol": {
		"EspressoTxValidator": {
			"abi": [
				{
					"inputs": [],
					"stateMutability": "nonpayable",
					"type": "constructor"
				},
				{
					"anonymous": false,
					"inputs": [
						{
							"indexed": true,
							"internalType": "address",
							"name": "user",
							"type": "address"
						},
						{
							"indexed": false,
							"internalType": "string",
							"name": "message",
							"type": "string"
						}
					],
					"name": "ActionValidated",
					"type": "event"
				},
				{
					"inputs": [
						{
							"internalType": "bytes32",
							"name": "txHash",
							"type": "bytes32"
						}
					],
					"name": "isConfirmedByEspresso",
					"outputs": [
						{
							"internalType": "bool",
							"name": "",
							"type": "bool"
						}
					],
					"stateMutability": "pure",
					"type": "function"
				},
				{
					"inputs": [],
					"name": "owner",
					"outputs": [
						{
							"internalType": "address",
							"name": "",
							"type": "address"
						}
					],
					"stateMutability": "view",
					"type": "function"
				},
				{
					"inputs": [
						{
							"internalType": "bytes32",
							"name": "txHash",
							"type": "bytes32"
						}
					],
					"name": "performAction",
					"outputs": [],
					"stateMutability": "nonpayable",
					"type": "function"
				}
			],
			"devdoc": {
				"kind": "dev",
				"methods": {
					"isConfirmedByEspresso(bytes32)": {
						"details": "Simule une confirmation depuis Espresso"
					},
					"performAction(bytes32)": {
						"details": "Action sécurisée : exécutée uniquement si la transaction est confirmée"
					}
				},
				"version": 1
			},
			"evm": {
				"assembly": "    /* \"Espresso/SM Test validation.sol\":61:808  contract EspressoTxValidator {... */\n  mstore(0x40, 0x80)\n    /* \"Espresso/SM Test validation.sol\":245:296  constructor() {... */\n  callvalue\n  dup1\n  iszero\n  tag_1\n  jumpi\n  0x00\n  dup1\n  revert\ntag_1:\n  pop\n    /* \"Espresso/SM Test validation.sol\":278:288  msg.sender */\n  caller\n    /* \"Espresso/SM Test validation.sol\":270:275  owner */\n  0x00\n  dup1\n    /* \"Espresso/SM Test validation.sol\":270:288  owner = msg.sender */\n  0x0100\n  exp\n  dup2\n  sload\n  dup2\n  0xffffffffffffffffffffffffffffffffffffffff\n  mul\n  not\n  and\n  swap1\n  dup4\n  0xffffffffffffffffffffffffffffffffffffffff\n  and\n  mul\n  or\n  swap1\n  sstore\n  pop\n    /* \"Espresso/SM Test validation.sol\":61:808  contract EspressoTxValidator {... */\n  dataSize(sub_0)\n  dup1\n  dataOffset(sub_0)\n  0x00\n  codecopy\n  0x00\n  return\nstop\n\nsub_0: assembly {\n        /* \"Espresso/SM Test validation.sol\":61:808  contract EspressoTxValidator {... */\n      mstore(0x40, 0x80)\n      callvalue\n      dup1\n      iszero\n      tag_1\n      jumpi\n      0x00\n      dup1\n      revert\n    tag_1:\n      pop\n      jumpi(tag_2, lt(calldatasize, 0x04))\n      shr(0xe0, calldataload(0x00))\n      dup1\n      0x71c1964d\n      eq\n      tag_3\n      jumpi\n      dup1\n      0x8da5cb5b\n      eq\n      tag_4\n      jumpi\n      dup1\n      0xfc580691\n      eq\n      tag_5\n      jumpi\n    tag_2:\n      0x00\n      dup1\n      revert\n        /* \"Espresso/SM Test validation.sol\":358:483  function isConfirmedByEspresso(bytes32 txHash) public pure returns (bool) {... */\n    tag_3:\n      tag_6\n      0x04\n      dup1\n      calldatasize\n      sub\n      dup2\n      add\n      swap1\n      tag_7\n      swap2\n      swap1\n      tag_8\n      jump\t// in\n    tag_7:\n      tag_9\n      jump\t// in\n    tag_6:\n      mload(0x40)\n      tag_10\n      swap2\n      swap1\n      tag_11\n      jump\t// in\n    tag_10:\n      mload(0x40)\n      dup1\n      swap2\n      sub\n      swap1\n      return\n        /* \"Espresso/SM Test validation.sol\":97:117  address public owner */\n    tag_4:\n      tag_12\n      tag_13\n      jump\t// in\n    tag_12:\n      mload(0x40)\n      tag_14\n      swap2\n      swap1\n      tag_15\n      jump\t// in\n    tag_14:\n      mload(0x40)\n      dup1\n      swap2\n      sub\n      swap1\n      return\n        /* \"Espresso/SM Test validation.sol\":581:805  function performAction(bytes32 txHash) external {... */\n    tag_5:\n      tag_16\n      0x04\n      dup1\n      calldatasize\n      sub\n      dup2\n      add\n      swap1\n      tag_17\n      swap2\n      swap1\n      tag_8\n      jump\t// in\n    tag_17:\n      tag_18\n      jump\t// in\n    tag_16:\n      stop\n        /* \"Espresso/SM Test validation.sol\":358:483  function isConfirmedByEspresso(bytes32 txHash) public pure returns (bool) {... */\n    tag_9:\n        /* \"Espresso/SM Test validation.sol\":426:430  bool */\n      0x00\n        /* \"Espresso/SM Test validation.sol\":473:474  0 */\n      dup1\n        /* \"Espresso/SM Test validation.sol\":468:469  2 */\n      0x02\n        /* \"Espresso/SM Test validation.sol\":458:464  txHash */\n      dup4\n        /* \"Espresso/SM Test validation.sol\":450:465  uint256(txHash) */\n      0x00\n      shr\n        /* \"Espresso/SM Test validation.sol\":450:469  uint256(txHash) % 2 */\n      tag_20\n      swap2\n      swap1\n      tag_21\n      jump\t// in\n    tag_20:\n        /* \"Espresso/SM Test validation.sol\":450:474  uint256(txHash) % 2 == 0 */\n      eq\n        /* \"Espresso/SM Test validation.sol\":443:474  return uint256(txHash) % 2 == 0 */\n      swap1\n      pop\n        /* \"Espresso/SM Test validation.sol\":358:483  function isConfirmedByEspresso(bytes32 txHash) public pure returns (bool) {... */\n      swap2\n      swap1\n      pop\n      jump\t// out\n        /* \"Espresso/SM Test validation.sol\":97:117  address public owner */\n    tag_13:\n      0x00\n      dup1\n      sload\n      swap1\n      0x0100\n      exp\n      swap1\n      div\n      0xffffffffffffffffffffffffffffffffffffffff\n      and\n      dup2\n      jump\t// out\n        /* \"Espresso/SM Test validation.sol\":581:805  function performAction(bytes32 txHash) external {... */\n    tag_18:\n        /* \"Espresso/SM Test validation.sol\":648:677  isConfirmedByEspresso(txHash) */\n      tag_23\n        /* \"Espresso/SM Test validation.sol\":670:676  txHash */\n      dup2\n        /* \"Espresso/SM Test validation.sol\":648:669  isConfirmedByEspresso */\n      tag_9\n        /* \"Espresso/SM Test validation.sol\":648:677  isConfirmedByEspresso(txHash) */\n      jump\t// in\n    tag_23:\n        /* \"Espresso/SM Test validation.sol\":640:707  require(isConfirmedByEspresso(txHash), \"Not confirmed by Espresso\") */\n      tag_24\n      jumpi\n      mload(0x40)\n      0x08c379a000000000000000000000000000000000000000000000000000000000\n      dup2\n      mstore\n      0x04\n      add\n      tag_25\n      swap1\n      tag_26\n      jump\t// in\n    tag_25:\n      mload(0x40)\n      dup1\n      swap2\n      sub\n      swap1\n      revert\n    tag_24:\n        /* \"Espresso/SM Test validation.sol\":741:751  msg.sender */\n      caller\n        /* \"Espresso/SM Test validation.sol\":725:797  ActionValidated(msg.sender, \"Transaction confirmed & action performed!\") */\n      0xffffffffffffffffffffffffffffffffffffffff\n      and\n      0x4b4a8e5c16952ecaa641b7555d5ed51e048e1d58a2f81b2b8e7a1f1fd885cdb8\n      mload(0x40)\n      tag_27\n      swap1\n      tag_28\n      jump\t// in\n    tag_27:\n      mload(0x40)\n      dup1\n      swap2\n      sub\n      swap1\n      log2\n        /* \"Espresso/SM Test validation.sol\":581:805  function performAction(bytes32 txHash) external {... */\n      pop\n      jump\t// out\n        /* \"#utility.yul\":88:205   */\n    tag_30:\n        /* \"#utility.yul\":197:198   */\n      0x00\n        /* \"#utility.yul\":194:195   */\n      dup1\n        /* \"#utility.yul\":187:199   */\n      revert\n        /* \"#utility.yul\":334:411   */\n    tag_32:\n        /* \"#utility.yul\":371:378   */\n      0x00\n        /* \"#utility.yul\":400:405   */\n      dup2\n        /* \"#utility.yul\":389:405   */\n      swap1\n      pop\n        /* \"#utility.yul\":334:411   */\n      swap2\n      swap1\n      pop\n      jump\t// out\n        /* \"#utility.yul\":417:539   */\n    tag_33:\n        /* \"#utility.yul\":490:514   */\n      tag_53\n        /* \"#utility.yul\":508:513   */\n      dup2\n        /* \"#utility.yul\":490:514   */\n      tag_32\n      jump\t// in\n    tag_53:\n        /* \"#utility.yul\":483:488   */\n      dup2\n        /* \"#utility.yul\":480:515   */\n      eq\n        /* \"#utility.yul\":470:533   */\n      tag_54\n      jumpi\n        /* \"#utility.yul\":529:530   */\n      0x00\n        /* \"#utility.yul\":526:527   */\n      dup1\n        /* \"#utility.yul\":519:531   */\n      revert\n        /* \"#utility.yul\":470:533   */\n    tag_54:\n        /* \"#utility.yul\":417:539   */\n      pop\n      jump\t// out\n        /* \"#utility.yul\":545:684   */\n    tag_34:\n        /* \"#utility.yul\":591:596   */\n      0x00\n        /* \"#utility.yul\":629:635   */\n      dup2\n        /* \"#utility.yul\":616:636   */\n      calldataload\n        /* \"#utility.yul\":607:636   */\n      swap1\n      pop\n        /* \"#utility.yul\":645:678   */\n      tag_56\n        /* \"#utility.yul\":672:677   */\n      dup2\n        /* \"#utility.yul\":645:678   */\n      tag_33\n      jump\t// in\n    tag_56:\n        /* \"#utility.yul\":545:684   */\n      swap3\n      swap2\n      pop\n      pop\n      jump\t// out\n        /* \"#utility.yul\":690:1019   */\n    tag_8:\n        /* \"#utility.yul\":749:755   */\n      0x00\n        /* \"#utility.yul\":798:800   */\n      0x20\n        /* \"#utility.yul\":786:795   */\n      dup3\n        /* \"#utility.yul\":777:784   */\n      dup5\n        /* \"#utility.yul\":773:796   */\n      sub\n        /* \"#utility.yul\":769:801   */\n      slt\n        /* \"#utility.yul\":766:885   */\n      iszero\n      tag_58\n      jumpi\n        /* \"#utility.yul\":804:883   */\n      tag_59\n      tag_30\n      jump\t// in\n    tag_59:\n        /* \"#utility.yul\":766:885   */\n    tag_58:\n        /* \"#utility.yul\":924:925   */\n      0x00\n        /* \"#utility.yul\":949:1002   */\n      tag_60\n        /* \"#utility.yul\":994:1001   */\n      dup5\n        /* \"#utility.yul\":985:991   */\n      dup3\n        /* \"#utility.yul\":974:983   */\n      dup6\n        /* \"#utility.yul\":970:992   */\n      add\n        /* \"#utility.yul\":949:1002   */\n      tag_34\n      jump\t// in\n    tag_60:\n        /* \"#utility.yul\":939:1002   */\n      swap2\n      pop\n        /* \"#utility.yul\":895:1012   */\n      pop\n        /* \"#utility.yul\":690:1019   */\n      swap3\n      swap2\n      pop\n      pop\n      jump\t// out\n        /* \"#utility.yul\":1025:1115   */\n    tag_35:\n        /* \"#utility.yul\":1059:1066   */\n      0x00\n        /* \"#utility.yul\":1102:1107   */\n      dup2\n        /* \"#utility.yul\":1095:1108   */\n      iszero\n        /* \"#utility.yul\":1088:1109   */\n      iszero\n        /* \"#utility.yul\":1077:1109   */\n      swap1\n      pop\n        /* \"#utility.yul\":1025:1115   */\n      swap2\n      swap1\n      pop\n      jump\t// out\n        /* \"#utility.yul\":1121:1230   */\n    tag_36:\n        /* \"#utility.yul\":1202:1223   */\n      tag_63\n        /* \"#utility.yul\":1217:1222   */\n      dup2\n        /* \"#utility.yul\":1202:1223   */\n      tag_35\n      jump\t// in\n    tag_63:\n        /* \"#utility.yul\":1197:1200   */\n      dup3\n        /* \"#utility.yul\":1190:1224   */\n      mstore\n        /* \"#utility.yul\":1121:1230   */\n      pop\n      pop\n      jump\t// out\n        /* \"#utility.yul\":1236:1446   */\n    tag_11:\n        /* \"#utility.yul\":1323:1327   */\n      0x00\n        /* \"#utility.yul\":1361:1363   */\n      0x20\n        /* \"#utility.yul\":1350:1359   */\n      dup3\n        /* \"#utility.yul\":1346:1364   */\n      add\n        /* \"#utility.yul\":1338:1364   */\n      swap1\n      pop\n        /* \"#utility.yul\":1374:1439   */\n      tag_65\n        /* \"#utility.yul\":1436:1437   */\n      0x00\n        /* \"#utility.yul\":1425:1434   */\n      dup4\n        /* \"#utility.yul\":1421:1438   */\n      add\n        /* \"#utility.yul\":1412:1418   */\n      dup5\n        /* \"#utility.yul\":1374:1439   */\n      tag_36\n      jump\t// in\n    tag_65:\n        /* \"#utility.yul\":1236:1446   */\n      swap3\n      swap2\n      pop\n      pop\n      jump\t// out\n        /* \"#utility.yul\":1452:1578   */\n    tag_37:\n        /* \"#utility.yul\":1489:1496   */\n      0x00\n        /* \"#utility.yul\":1529:1571   */\n      0xffffffffffffffffffffffffffffffffffffffff\n        /* \"#utility.yul\":1522:1527   */\n      dup3\n        /* \"#utility.yul\":1518:1572   */\n      and\n        /* \"#utility.yul\":1507:1572   */\n      swap1\n      pop\n        /* \"#utility.yul\":1452:1578   */\n      swap2\n      swap1\n      pop\n      jump\t// out\n        /* \"#utility.yul\":1584:1680   */\n    tag_38:\n        /* \"#utility.yul\":1621:1628   */\n      0x00\n        /* \"#utility.yul\":1650:1674   */\n      tag_68\n        /* \"#utility.yul\":1668:1673   */\n      dup3\n        /* \"#utility.yul\":1650:1674   */\n      tag_37\n      jump\t// in\n    tag_68:\n        /* \"#utility.yul\":1639:1674   */\n      swap1\n      pop\n        /* \"#utility.yul\":1584:1680   */\n      swap2\n      swap1\n      pop\n      jump\t// out\n        /* \"#utility.yul\":1686:1804   */\n    tag_39:\n        /* \"#utility.yul\":1773:1797   */\n      tag_70\n        /* \"#utility.yul\":1791:1796   */\n      dup2\n        /* \"#utility.yul\":1773:1797   */\n      tag_38\n      jump\t// in\n    tag_70:\n        /* \"#utility.yul\":1768:1771   */\n      dup3\n        /* \"#utility.yul\":1761:1798   */\n      mstore\n        /* \"#utility.yul\":1686:1804   */\n      pop\n      pop\n      jump\t// out\n        /* \"#utility.yul\":1810:2032   */\n    tag_15:\n        /* \"#utility.yul\":1903:1907   */\n      0x00\n        /* \"#utility.yul\":1941:1943   */\n      0x20\n        /* \"#utility.yul\":1930:1939   */\n      dup3\n        /* \"#utility.yul\":1926:1944   */\n      add\n        /* \"#utility.yul\":1918:1944   */\n      swap1\n      pop\n        /* \"#utility.yul\":1954:2025   */\n      tag_72\n        /* \"#utility.yul\":2022:2023   */\n      0x00\n        /* \"#utility.yul\":2011:2020   */\n      dup4\n        /* \"#utility.yul\":2007:2024   */\n      add\n        /* \"#utility.yul\":1998:2004   */\n      dup5\n        /* \"#utility.yul\":1954:2025   */\n      tag_39\n      jump\t// in\n    tag_72:\n        /* \"#utility.yul\":1810:2032   */\n      swap3\n      swap2\n      pop\n      pop\n      jump\t// out\n        /* \"#utility.yul\":2038:2115   */\n    tag_40:\n        /* \"#utility.yul\":2075:2082   */\n      0x00\n        /* \"#utility.yul\":2104:2109   */\n      dup2\n        /* \"#utility.yul\":2093:2109   */\n      swap1\n      pop\n        /* \"#utility.yul\":2038:2115   */\n      swap2\n      swap1\n      pop\n      jump\t// out\n        /* \"#utility.yul\":2121:2301   */\n    tag_41:\n        /* \"#utility.yul\":2169:2246   */\n      0x4e487b7100000000000000000000000000000000000000000000000000000000\n        /* \"#utility.yul\":2166:2167   */\n      0x00\n        /* \"#utility.yul\":2159:2247   */\n      mstore\n        /* \"#utility.yul\":2266:2270   */\n      0x12\n        /* \"#utility.yul\":2263:2264   */\n      0x04\n        /* \"#utility.yul\":2256:2271   */\n      mstore\n        /* \"#utility.yul\":2290:2294   */\n      0x24\n        /* \"#utility.yul\":2287:2288   */\n      0x00\n        /* \"#utility.yul\":2280:2295   */\n      revert\n        /* \"#utility.yul\":2307:2483   */\n    tag_21:\n        /* \"#utility.yul\":2339:2340   */\n      0x00\n        /* \"#utility.yul\":2356:2376   */\n      tag_76\n        /* \"#utility.yul\":2374:2375   */\n      dup3\n        /* \"#utility.yul\":2356:2376   */\n      tag_40\n      jump\t// in\n    tag_76:\n        /* \"#utility.yul\":2351:2376   */\n      swap2\n      pop\n        /* \"#utility.yul\":2390:2410   */\n      tag_77\n        /* \"#utility.yul\":2408:2409   */\n      dup4\n        /* \"#utility.yul\":2390:2410   */\n      tag_40\n      jump\t// in\n    tag_77:\n        /* \"#utility.yul\":2385:2410   */\n      swap3\n      pop\n        /* \"#utility.yul\":2429:2430   */\n      dup3\n        /* \"#utility.yul\":2419:2454   */\n      tag_78\n      jumpi\n        /* \"#utility.yul\":2434:2452   */\n      tag_79\n      tag_41\n      jump\t// in\n    tag_79:\n        /* \"#utility.yul\":2419:2454   */\n    tag_78:\n        /* \"#utility.yul\":2475:2476   */\n      dup3\n        /* \"#utility.yul\":2472:2473   */\n      dup3\n        /* \"#utility.yul\":2468:2477   */\n      mod\n        /* \"#utility.yul\":2463:2477   */\n      swap1\n      pop\n        /* \"#utility.yul\":2307:2483   */\n      swap3\n      swap2\n      pop\n      pop\n      jump\t// out\n        /* \"#utility.yul\":2489:2658   */\n    tag_42:\n        /* \"#utility.yul\":2573:2584   */\n      0x00\n        /* \"#utility.yul\":2607:2613   */\n      dup3\n        /* \"#utility.yul\":2602:2605   */\n      dup3\n        /* \"#utility.yul\":2595:2614   */\n      mstore\n        /* \"#utility.yul\":2647:2651   */\n      0x20\n        /* \"#utility.yul\":2642:2645   */\n      dup3\n        /* \"#utility.yul\":2638:2652   */\n      add\n        /* \"#utility.yul\":2623:2652   */\n      swap1\n      pop\n        /* \"#utility.yul\":2489:2658   */\n      swap3\n      swap2\n      pop\n      pop\n      jump\t// out\n        /* \"#utility.yul\":2664:2839   */\n    tag_43:\n        /* \"#utility.yul\":2804:2831   */\n      0x4e6f7420636f6e6669726d656420627920457370726573736f00000000000000\n        /* \"#utility.yul\":2800:2801   */\n      0x00\n        /* \"#utility.yul\":2792:2798   */\n      dup3\n        /* \"#utility.yul\":2788:2802   */\n      add\n        /* \"#utility.yul\":2781:2832   */\n      mstore\n        /* \"#utility.yul\":2664:2839   */\n      pop\n      jump\t// out\n        /* \"#utility.yul\":2845:3211   */\n    tag_44:\n        /* \"#utility.yul\":2987:2990   */\n      0x00\n        /* \"#utility.yul\":3008:3075   */\n      tag_83\n        /* \"#utility.yul\":3072:3074   */\n      0x19\n        /* \"#utility.yul\":3067:3070   */\n      dup4\n        /* \"#utility.yul\":3008:3075   */\n      tag_42\n      jump\t// in\n    tag_83:\n        /* \"#utility.yul\":3001:3075   */\n      swap2\n      pop\n        /* \"#utility.yul\":3084:3177   */\n      tag_84\n        /* \"#utility.yul\":3173:3176   */\n      dup3\n        /* \"#utility.yul\":3084:3177   */\n      tag_43\n      jump\t// in\n    tag_84:\n        /* \"#utility.yul\":3202:3204   */\n      0x20\n        /* \"#utility.yul\":3197:3200   */\n      dup3\n        /* \"#utility.yul\":3193:3205   */\n      add\n        /* \"#utility.yul\":3186:3205   */\n      swap1\n      pop\n        /* \"#utility.yul\":2845:3211   */\n      swap2\n      swap1\n      pop\n      jump\t// out\n        /* \"#utility.yul\":3217:3636   */\n    tag_26:\n        /* \"#utility.yul\":3383:3387   */\n      0x00\n        /* \"#utility.yul\":3421:3423   */\n      0x20\n        /* \"#utility.yul\":3410:3419   */\n      dup3\n        /* \"#utility.yul\":3406:3424   */\n      add\n        /* \"#utility.yul\":3398:3424   */\n      swap1\n      pop\n        /* \"#utility.yul\":3470:3479   */\n      dup2\n        /* \"#utility.yul\":3464:3468   */\n      dup2\n        /* \"#utility.yul\":3460:3480   */\n      sub\n        /* \"#utility.yul\":3456:3457   */\n      0x00\n        /* \"#utility.yul\":3445:3454   */\n      dup4\n        /* \"#utility.yul\":3441:3458   */\n      add\n        /* \"#utility.yul\":3434:3481   */\n      mstore\n        /* \"#utility.yul\":3498:3629   */\n      tag_86\n        /* \"#utility.yul\":3624:3628   */\n      dup2\n        /* \"#utility.yul\":3498:3629   */\n      tag_44\n      jump\t// in\n    tag_86:\n        /* \"#utility.yul\":3490:3629   */\n      swap1\n      pop\n        /* \"#utility.yul\":3217:3636   */\n      swap2\n      swap1\n      pop\n      jump\t// out\n        /* \"#utility.yul\":3642:3870   */\n    tag_45:\n        /* \"#utility.yul\":3782:3816   */\n      0x5472616e73616374696f6e20636f6e6669726d6564202620616374696f6e2070\n        /* \"#utility.yul\":3778:3779   */\n      0x00\n        /* \"#utility.yul\":3770:3776   */\n      dup3\n        /* \"#utility.yul\":3766:3780   */\n      add\n        /* \"#utility.yul\":3759:3817   */\n      mstore\n        /* \"#utility.yul\":3851:3862   */\n      0x6572666f726d6564210000000000000000000000000000000000000000000000\n        /* \"#utility.yul\":3846:3848   */\n      0x20\n        /* \"#utility.yul\":3838:3844   */\n      dup3\n        /* \"#utility.yul\":3834:3849   */\n      add\n        /* \"#utility.yul\":3827:3863   */\n      mstore\n        /* \"#utility.yul\":3642:3870   */\n      pop\n      jump\t// out\n        /* \"#utility.yul\":3876:4242   */\n    tag_46:\n        /* \"#utility.yul\":4018:4021   */\n      0x00\n        /* \"#utility.yul\":4039:4106   */\n      tag_89\n        /* \"#utility.yul\":4103:4105   */\n      0x29\n        /* \"#utility.yul\":4098:4101   */\n      dup4\n        /* \"#utility.yul\":4039:4106   */\n      tag_42\n      jump\t// in\n    tag_89:\n        /* \"#utility.yul\":4032:4106   */\n      swap2\n      pop\n        /* \"#utility.yul\":4115:4208   */\n      tag_90\n        /* \"#utility.yul\":4204:4207   */\n      dup3\n        /* \"#utility.yul\":4115:4208   */\n      tag_45\n      jump\t// in\n    tag_90:\n        /* \"#utility.yul\":4233:4235   */\n      0x40\n        /* \"#utility.yul\":4228:4231   */\n      dup3\n        /* \"#utility.yul\":4224:4236   */\n      add\n        /* \"#utility.yul\":4217:4236   */\n      swap1\n      pop\n        /* \"#utility.yul\":3876:4242   */\n      swap2\n      swap1\n      pop\n      jump\t// out\n        /* \"#utility.yul\":4248:4667   */\n    tag_28:\n        /* \"#utility.yul\":4414:4418   */\n      0x00\n        /* \"#utility.yul\":4452:4454   */\n      0x20\n        /* \"#utility.yul\":4441:4450   */\n      dup3\n        /* \"#utility.yul\":4437:4455   */\n      add\n        /* \"#utility.yul\":4429:4455   */\n      swap1\n      pop\n        /* \"#utility.yul\":4501:4510   */\n      dup2\n        /* \"#utility.yul\":4495:4499   */\n      dup2\n        /* \"#utility.yul\":4491:4511   */\n      sub\n        /* \"#utility.yul\":4487:4488   */\n      0x00\n        /* \"#utility.yul\":4476:4485   */\n      dup4\n        /* \"#utility.yul\":4472:4489   */\n      add\n        /* \"#utility.yul\":4465:4512   */\n      mstore\n        /* \"#utility.yul\":4529:4660   */\n      tag_92\n        /* \"#utility.yul\":4655:4659   */\n      dup2\n        /* \"#utility.yul\":4529:4660   */\n      tag_46\n      jump\t// in\n    tag_92:\n        /* \"#utility.yul\":4521:4660   */\n      swap1\n      pop\n        /* \"#utility.yul\":4248:4667   */\n      swap2\n      swap1\n      pop\n      jump\t// out\n\n    auxdata: 0xa2646970667358221220af6365eda303a62b5f1bc1ae4c4cd49c2dd12e45e70d747daa25ecf1d9e6e00f64736f6c63430008140033\n}\n",
				"bytecode": {
					"linkReferences": {},
					"object": "608060405234801561001057600080fd5b50336000806101000a81548173ffffffffffffffffffffffffffffffffffffffff021916908373ffffffffffffffffffffffffffffffffffffffff16021790555061042f806100606000396000f3fe608060405234801561001057600080fd5b50600436106100415760003560e01c806371c1964d146100465780638da5cb5b14610076578063fc58069114610094575b600080fd5b610060600480360381019061005b91906101c1565b6100b0565b60405161006d9190610209565b60405180910390f35b61007e6100cb565b60405161008b9190610265565b60405180910390f35b6100ae60048036038101906100a991906101c1565b6100ef565b005b60008060028360001c6100c391906102b9565b149050919050565b60008054906101000a900473ffffffffffffffffffffffffffffffffffffffff1681565b6100f8816100b0565b610137576040517f08c379a000000000000000000000000000000000000000000000000000000000815260040161012e90610347565b60405180910390fd5b3373ffffffffffffffffffffffffffffffffffffffff167f4b4a8e5c16952ecaa641b7555d5ed51e048e1d58a2f81b2b8e7a1f1fd885cdb860405161017b906103d9565b60405180910390a250565b600080fd5b6000819050919050565b61019e8161018b565b81146101a957600080fd5b50565b6000813590506101bb81610195565b92915050565b6000602082840312156101d7576101d6610186565b5b60006101e5848285016101ac565b91505092915050565b60008115159050919050565b610203816101ee565b82525050565b600060208201905061021e60008301846101fa565b92915050565b600073ffffffffffffffffffffffffffffffffffffffff82169050919050565b600061024f82610224565b9050919050565b61025f81610244565b82525050565b600060208201905061027a6000830184610256565b92915050565b6000819050919050565b7f4e487b7100000000000000000000000000000000000000000000000000000000600052601260045260246000fd5b60006102c482610280565b91506102cf83610280565b9250826102df576102de61028a565b5b828206905092915050565b600082825260208201905092915050565b7f4e6f7420636f6e6669726d656420627920457370726573736f00000000000000600082015250565b60006103316019836102ea565b915061033c826102fb565b602082019050919050565b6000602082019050818103600083015261036081610324565b9050919050565b7f5472616e73616374696f6e20636f6e6669726d6564202620616374696f6e207060008201527f6572666f726d6564210000000000000000000000000000000000000000000000602082015250565b60006103c36029836102ea565b91506103ce82610367565b604082019050919050565b600060208201905081810360008301526103f2816103b6565b905091905056fea2646970667358221220af6365eda303a62b5f1bc1ae4c4cd49c2dd12e45e70d747daa25ecf1d9e6e00f64736f6c63430008140033",
					"opcodes": "PUSH1 0x80 PUSH1 0x40 MSTORE CALLVALUE DUP1 ISZERO PUSH2 0x10 JUMPI PUSH1 0x0 DUP1 REVERT JUMPDEST POP CALLER PUSH1 0x0 DUP1 PUSH2 0x100 EXP DUP2 SLOAD DUP2 PUSH20 0xFFFFFFFFFFFFFFFFFFFFFFFFFFFFFFFFFFFFFFFF MUL NOT AND SWAP1 DUP4 PUSH20 0xFFFFFFFFFFFFFFFFFFFFFFFFFFFFFFFFFFFFFFFF AND MUL OR SWAP1 SSTORE POP PUSH2 0x42F DUP1 PUSH2 0x60 PUSH1 0x0 CODECOPY PUSH1 0x0 RETURN INVALID PUSH1 0x80 PUSH1 0x40 MSTORE CALLVALUE DUP1 ISZERO PUSH2 0x10 JUMPI PUSH1 0x0 DUP1 REVERT JUMPDEST POP PUSH1 0x4 CALLDATASIZE LT PUSH2 0x41 JUMPI PUSH1 0x0 CALLDATALOAD PUSH1 0xE0 SHR DUP1 PUSH4 0x71C1964D EQ PUSH2 0x46 JUMPI DUP1 PUSH4 0x8DA5CB5B EQ PUSH2 0x76 JUMPI DUP1 PUSH4 0xFC580691 EQ PUSH2 0x94 JUMPI JUMPDEST PUSH1 0x0 DUP1 REVERT JUMPDEST PUSH2 0x60 PUSH1 0x4 DUP1 CALLDATASIZE SUB DUP2 ADD SWAP1 PUSH2 0x5B SWAP2 SWAP1 PUSH2 0x1C1 JUMP JUMPDEST PUSH2 0xB0 JUMP JUMPDEST PUSH1 0x40 MLOAD PUSH2 0x6D SWAP2 SWAP1 PUSH2 0x209 JUMP JUMPDEST PUSH1 0x40 MLOAD DUP1 SWAP2 SUB SWAP1 RETURN JUMPDEST PUSH2 0x7E PUSH2 0xCB JUMP JUMPDEST PUSH1 0x40 MLOAD PUSH2 0x8B SWAP2 SWAP1 PUSH2 0x265 JUMP JUMPDEST PUSH1 0x40 MLOAD DUP1 SWAP2 SUB SWAP1 RETURN JUMPDEST PUSH2 0xAE PUSH1 0x4 DUP1 CALLDATASIZE SUB DUP2 ADD SWAP1 PUSH2 0xA9 SWAP2 SWAP1 PUSH2 0x1C1 JUMP JUMPDEST PUSH2 0xEF JUMP JUMPDEST STOP JUMPDEST PUSH1 0x0 DUP1 PUSH1 0x2 DUP4 PUSH1 0x0 SHR PUSH2 0xC3 SWAP2 SWAP1 PUSH2 0x2B9 JUMP JUMPDEST EQ SWAP1 POP SWAP2 SWAP1 POP JUMP JUMPDEST PUSH1 0x0 DUP1 SLOAD SWAP1 PUSH2 0x100 EXP SWAP1 DIV PUSH20 0xFFFFFFFFFFFFFFFFFFFFFFFFFFFFFFFFFFFFFFFF AND DUP2 JUMP JUMPDEST PUSH2 0xF8 DUP2 PUSH2 0xB0 JUMP JUMPDEST PUSH2 0x137 JUMPI PUSH1 0x40 MLOAD PUSH32 0x8C379A000000000000000000000000000000000000000000000000000000000 DUP2 MSTORE PUSH1 0x4 ADD PUSH2 0x12E SWAP1 PUSH2 0x347 JUMP JUMPDEST PUSH1 0x40 MLOAD DUP1 SWAP2 SUB SWAP1 REVERT JUMPDEST CALLER PUSH20 0xFFFFFFFFFFFFFFFFFFFFFFFFFFFFFFFFFFFFFFFF AND PUSH32 0x4B4A8E5C16952ECAA641B7555D5ED51E048E1D58A2F81B2B8E7A1F1FD885CDB8 PUSH1 0x40 MLOAD PUSH2 0x17B SWAP1 PUSH2 0x3D9 JUMP JUMPDEST PUSH1 0x40 MLOAD DUP1 SWAP2 SUB SWAP1 LOG2 POP JUMP JUMPDEST PUSH1 0x0 DUP1 REVERT JUMPDEST PUSH1 0x0 DUP2 SWAP1 POP SWAP2 SWAP1 POP JUMP JUMPDEST PUSH2 0x19E DUP2 PUSH2 0x18B JUMP JUMPDEST DUP2 EQ PUSH2 0x1A9 JUMPI PUSH1 0x0 DUP1 REVERT JUMPDEST POP JUMP JUMPDEST PUSH1 0x0 DUP2 CALLDATALOAD SWAP1 POP PUSH2 0x1BB DUP2 PUSH2 0x195 JUMP JUMPDEST SWAP3 SWAP2 POP POP JUMP JUMPDEST PUSH1 0x0 PUSH1 0x20 DUP3 DUP5 SUB SLT ISZERO PUSH2 0x1D7 JUMPI PUSH2 0x1D6 PUSH2 0x186 JUMP JUMPDEST JUMPDEST PUSH1 0x0 PUSH2 0x1E5 DUP5 DUP3 DUP6 ADD PUSH2 0x1AC JUMP JUMPDEST SWAP2 POP POP SWAP3 SWAP2 POP POP JUMP JUMPDEST PUSH1 0x0 DUP2 ISZERO ISZERO SWAP1 POP SWAP2 SWAP1 POP JUMP JUMPDEST PUSH2 0x203 DUP2 PUSH2 0x1EE JUMP JUMPDEST DUP3 MSTORE POP POP JUMP JUMPDEST PUSH1 0x0 PUSH1 0x20 DUP3 ADD SWAP1 POP PUSH2 0x21E PUSH1 0x0 DUP4 ADD DUP5 PUSH2 0x1FA JUMP JUMPDEST SWAP3 SWAP2 POP POP JUMP JUMPDEST PUSH1 0x0 PUSH20 0xFFFFFFFFFFFFFFFFFFFFFFFFFFFFFFFFFFFFFFFF DUP3 AND SWAP1 POP SWAP2 SWAP1 POP JUMP JUMPDEST PUSH1 0x0 PUSH2 0x24F DUP3 PUSH2 0x224 JUMP JUMPDEST SWAP1 POP SWAP2 SWAP1 POP JUMP JUMPDEST PUSH2 0x25F DUP2 PUSH2 0x244 JUMP JUMPDEST DUP3 MSTORE POP POP JUMP JUMPDEST PUSH1 0x0 PUSH1 0x20 DUP3 ADD SWAP1 POP PUSH2 0x27A PUSH1 0x0 DUP4 ADD DUP5 PUSH2 0x256 JUMP JUMPDEST SWAP3 SWAP2 POP POP JUMP JUMPDEST PUSH1 0x0 DUP2 SWAP1 POP SWAP2 SWAP1 POP JUMP JUMPDEST PUSH32 0x4E487B7100000000000000000000000000000000000000000000000000000000 PUSH1 0x0 MSTORE PUSH1 0x12 PUSH1 0x4 MSTORE PUSH1 0x24 PUSH1 0x0 REVERT JUMPDEST PUSH1 0x0 PUSH2 0x2C4 DUP3 PUSH2 0x280 JUMP JUMPDEST SWAP2 POP PUSH2 0x2CF DUP4 PUSH2 0x280 JUMP JUMPDEST SWAP3 POP DUP3 PUSH2 0x2DF JUMPI PUSH2 0x2DE PUSH2 0x28A JUMP JUMPDEST JUMPDEST DUP3 DUP3 MOD SWAP1 POP SWAP3 SWAP2 POP POP JUMP JUMPDEST PUSH1 0x0 DUP3 DUP3 MSTORE PUSH1 0x20 DUP3 ADD SWAP1 POP SWAP3 SWAP2 POP POP JUMP JUMPDEST PUSH32 0x4E6F7420636F6E6669726D656420627920457370726573736F00000000000000 PUSH1 0x0 DUP3 ADD MSTORE POP JUMP JUMPDEST PUSH1 0x0 PUSH2 0x331 PUSH1 0x19 DUP4 PUSH2 0x2EA JUMP JUMPDEST SWAP2 POP PUSH2 0x33C DUP3 PUSH2 0x2FB JUMP JUMPDEST PUSH1 0x20 DUP3 ADD SWAP1 POP SWAP2 SWAP1 POP JUMP JUMPDEST PUSH1 0x0 PUSH1 0x20 DUP3 ADD SWAP1 POP DUP2 DUP2 SUB PUSH1 0x0 DUP4 ADD MSTORE PUSH2 0x360 DUP2 PUSH2 0x324 JUMP JUMPDEST SWAP1 POP SWAP2 SWAP1 POP JUMP JUMPDEST PUSH32 0x5472616E73616374696F6E20636F6E6669726D6564202620616374696F6E2070 PUSH1 0x0 DUP3 ADD MSTORE PUSH32 0x6572666F726D6564210000000000000000000000000000000000000000000000 PUSH1 0x20 DUP3 ADD MSTORE POP JUMP JUMPDEST PUSH1 0x0 PUSH2 0x3C3 PUSH1 0x29 DUP4 PUSH2 0x2EA JUMP JUMPDEST SWAP2 POP PUSH2 0x3CE DUP3 PUSH2 0x367 JUMP JUMPDEST PUSH1 0x40 DUP3 ADD SWAP1 POP SWAP2 SWAP1 POP JUMP JUMPDEST PUSH1 0x0 PUSH1 0x20 DUP3 ADD SWAP1 POP DUP2 DUP2 SUB PUSH1 0x0 DUP4 ADD MSTORE PUSH2 0x3F2 DUP2 PUSH2 0x3B6 JUMP JUMPDEST SWAP1 POP SWAP2 SWAP1 POP JUMP INVALID LOG2 PUSH5 0x6970667358 0x22 SLT KECCAK256 0xAF PUSH4 0x65EDA303 0xA6 0x2B PUSH0 SHL 0xC1 0xAE 0x4C 0x4C 0xD4 SWAP13 0x2D 0xD1 0x2E GASLIMIT 0xE7 0xD PUSH21 0x7DAA25ECF1D9E6E00F64736F6C6343000814003300 "
				},
				"gasEstimates": {
					"creation": {
						"codeDepositCost": "214200",
						"executionCost": "24523",
						"totalCost": "238723"
					},
					"external": {
						"isConfirmedByEspresso(bytes32)": "infinite",
						"owner()": "2511",
						"performAction(bytes32)": "infinite"
					}
				},
				"methodIdentifiers": {
					"isConfirmedByEspresso(bytes32)": "71c1964d",
					"owner()": "8da5cb5b",
					"performAction(bytes32)": "fc580691"
				}
			},
			"storageLayout": {
				"storage": [
					{
						"astId": 3,
						"contract": "Espresso/SM Test validation.sol:EspressoTxValidator",
						"label": "owner",
						"offset": 0,
						"slot": "0",
						"type": "t_address"
					}
				],
				"types": {
					"t_address": {
						"encoding": "inplace",
						"label": "address",
						"numberOfBytes": "20"
					}
				}
			},
			"userdoc": {
				"kind": "user",
				"methods": {},
				"version": 1
			}
		}
	}
}